:020000040000FA
:0A000000020CC585A71F851FA7226B
:10000B000201A21200031201F21202241202511277
:10001B000237C3E573952BFBE572952AFAE57195CB
:10002B0029F9E5709528F8AE22AF23E4FCFDC31245
:10003B0000F14033AF73AE72AD71AC708F2B8E2A63
:10004B008D298C28AF757E00EF4E700575740A8074
:10005B000DAF757E00EF64FF4E70037574F6E5749B
:10006B002575F5758575FCC3E573952FFBE57295C5
:10007B002EFAE571952DF9E570952CF8AE24AF2588
:10008B00E4FCFDC31200F14089AF73AE72AD71ACED
:10009B00708F2F8E2E8D2D8C2C7B007A007930C09B
:1000AB0003C002C0017BFF7A0279628B0B8A0C8939
:1000BB000D85260E85270FD001D002D00312085CC8
:1000CB007B007A00793012017702001D22BB0106FA
:1000DB0089828A83E0225002E722BBFE02E3228957
:1000EB00828A83E49322EB9FF5F0EA9E42F0E99D2E
:1000FB0042F0E89C45F022BB010CE58229F582E534
:10010B00833AF583E0225006E92582F8E622BBFE0E
:10011B0006E92582F8E222E58229F582E5833AF5A4
:10012B0083E49322BB010689828A83F0225002F773
:10013B0022BBFE01F322FAE6FB0808E6F925F0F6EE
:10014B0018E6CA3AF622D083D082F8E49370127480
:10015B000193700DA3A393F8740193F5828883E444
:10016B00737402936860EFA3A3A380DF8B1C8A1DBB
:10017B00891EAB1CAA1DA91E1200D8FFEF6017AB7E
:10018B001C051EE51EAA1D7002051D14F91200D8D0
:10019B00FF12024680DC22C0E0C0D0E573240AF5D2
:1001AB0073E5723400F572E5713400F571E5703466
:1001BB0000F570758C10758ABEC28DD0D0D0E03230
:1001CB00EFB40A07740D1201D6740A309811A8996E
:1001DB00B8130CC2983098FDA899C298B811F63094
:1001EB0099FDC299F5992275A90043E34043E101BA
:1001FB0075D4CF75D50743E20143A50843A410225C
:10020B000470000000000222000A02240064017541
:10021B000001740A0226000A00758E0175890175AA
:10022B008C10758ABED2AFD2A9D28C22438E0843D2
:10023B008920758B96758D96D28E228F76857699C1
:10024B003099FDC2992243DA0275FC0043D8402253
:10025B007597DE7597AD2276616C75653D256420CB
:02026B000A0087
:10080000E517240BF8E60517227808300702780B65
:10081000E475F0011201410200D82000EB7F2ED2D6
:10082000008018EF540F2490D43440D4FF30040BD0
:10083000EF24BFB41A0050032461FFE518600215CD
:1008400018051BE51B7002051A30070D7808E475C2
:10085000F001120141EF02012F0201CB7403D20714
:100860008003E4C207F5178B088A09890AE4F518A2
:10087000F51AF51BE51860077F2012083B80F57517
:1008800019FFC201C200C202C203C205C206C208E9
:10089000120809FF700D3007057F0012084CAF1BCE
:1008A000AE1A22B4255FC2D5C204120809FF24D0B3
:1008B000B40A00501A75F00A781830D50508B6FF4A
:1008C0000106C6A426F620D5047002D20380D924DE
:1008D000CFB41A00EF5004C2E5D204020A4CD20190
:1008E00080C6D20080C0D20280BCD2D580BAD205E8
:1008F00080B47F2012083B2002077401B518004025
:10090000F1120800FF12083B020874D208D20680D8
:1009100095120800FB120800FA120800F94A4B7001
:1009200006791D7A0B7BFF20022EE518602A7E00D7
:100930008E8275830012010260060EEE651970F05A
:10094000C2D5EBC0E0EAC0E0E9C0E0EE120A93D005
:10095000E0F9D0E0FAD0E0FB1200D8FF60AAEBC0CB
:10096000E0EAC0E0E9C0E012083BD0E02401F9D0A1
:10097000E03400FAD0E0FBE5190460DCD519D98039
:10098000877BFF7A0A798FD202809C791080027966
:1009900008C206C2088008D2D5790A8004790AC242
:1009A000D5E519047002F519E4FAFDFEFF120800FE
:1009B000FC7B08200113120800FD7B1030000A1296
:1009C0000800FE120800FF7B20EC3382D592D55040
:1009D00013C3E43000069FFFE49EFEE42001039D64
:1009E000FDE49CFCE4CBF8C201EC700CCFCECDCC86
:1009F000E824F8F870F38017C3EF33FFEE33FEED11
:100A000033FDEC33FCEB33FB994002FB0FD8E9EBF1
:100A1000300105F8D0E0C448B201C0E00AEC4D4E08
:100A20004F78207B0070C2EAB5190040BCC0E012CC
:100A30000A95D0F0D0E0200104C4C0E0C4B201C0E7
:100A4000F0120824D0F0D5F0EB020874120151091D
:100A50001153098B5808E24C08DE42098F4F099761
:100A60004409974908F743099D550981460981457D
:100A70000981470B3D5008E62D08EA2E090D2B0889
:100A8000EE23090B200B262A08A648000009053F83
:100A90003F3F00790AA2D5200314300509B910029E
:100AA0000404B9080104A2D5200602500104200262
:100AB000689202B518005034C0E07F203003197FDF
:100AC00030A20272067205500F120AECC202C20670
:100AD000C205C2087F30800F300503E9C0E012086C
:100AE0003B300503D0E0F9D0E0B518CC3005177FD6
:100AF00030B9100C12083B7F583004077F78800310
:100B0000B9080312083B3002057F2D02083B7F2005
:100B10002008F87F2B2006F322920280CF286E75E2
:100B20006C6C2900D2011208003001F8C20178185B
:100B300030D50108F60208A62D5043495812080086
:100B40002403B405004001E4900B389312082C7480
:0C0B50003A12082CD20375180402098B1D
:100CC50012025B787FE4F6D8FD758177020D0F027D
:100CD500000EE493A3F8E493A34003F68001F20821
:100CE500DFF48029E493A3F85407240CC8C333C464
:100CF500540F4420C8834004F456800146F6DFE4CF
:100D0500800B010204081020408090020BE47E0154
:100D15009360BCA3FF543F30E509541FFEE493A341
:100D250060010ECF54C025E060A840B8E493A3FA53
:100D3500E493A3F8E493A3C8C582C8CAC583CAF0DF
:0F0D4500A3C8C582C8CAC583CADFE9DEE780BE7E
:00000001FF
