:020000040000FA
:10000000020800C0E0C2CFE50D640A450C7008B2DA
:1000100090750C00750D00050DE50D7002050CD0F6
:10002000E0321200A1D2AF80FE222202000375A7A7
:10003000007597A5750B00750A0075090075080015
:100040007F197E007D007C00AB0BAA0AA909A808D5
:10005000C31200B7502300AF0BAE0AAD09AC087B4A
:10006000017A0079007800EF2BF50BEE3AF50AEDF6
:1000700039F509EC38F50880C7A2AF9200C2AF7518
:1000800097DE7597ADA20092AF22E5C85404F50F34
:1000900053C8FB75CB9C75CA4F43C804E50F42C8D3
:1000A0002285A70E12002E1200CD1200D112008A56
:1000B0001200D5850EA722EB9FF5F0EA9E42F0E9EB
:1000C0009D42F0E89C45F022020C00000075A50955
:0900D0002275E3402275A8A0226C
:1008000012002A787FE4F6D8FD75812002084A029A
:100810000022E493A3F8E493A34003F68001F208D6
:10082000DFF48029E493A3F85407240CC8C333C42D
:10083000540F4420C8834004F456800146F6DFE498
:10084000800B01020408102040809000C8E47E0163
:100850009360BCA3FF543F30E509541FFEE493A30B
:1008600060010ECF54C025E060A840B8E493A3FA1D
:10087000E493A3F8E493A3C8C582C8CAC583CAF0A9
:0F088000A3C8C582C8CAC583CADFE9DEE780BE48
:00000001FF
