:020000040000FA
:10000000020B5CBB010689828A83E0225002E72250
:10001000BBFE02E32289828A83E49322BB010CE5C2
:100020008229F582E5833AF583E0225006E92582AC
:10003000F8E622BBFE06E92582F8E222E58229F5F0
:1000400082E5833AF583E49322BB010689828A83A1
:10005000F0225002F722BBFE01F322FAE6FB080869
:10006000E6F925F0F618E6CA3AF622D083D082F8EF
:10007000E4937012740193700DA3A393F874019329
:10008000F5828883E4737402936860EFA3A3A3806E
:10009000DF12020C1202001201D443A41043A60284
:1000A0007BFF7A0279111201597B007A00792CC00A
:1000B00003C002C0017BFF7A0279248B0B8A0C8972
:1000C0000D856C0E856D0FD001D002D00312085C37
:1000D0007B007A00792C1201591201F81201EE12FC
:1000E00001088E2A8F2B1201088E268F27120108F5
:1000F0008E288F291201088E248F251201088E2246
:100100008F231201AB80D222751E00751F00751C53
:1001100000751D00C3E51D9408E51C6480948050A3
:100120003330A1FD1201C130A112E51F25E0FFE52A
:100130001E33FE8E1EEF4401F51F800BE51F25E0E8
:10014000F51FE51E33F51E20A1FD051DE51D7002FE
:10015000051C80C0AE1EAF1F228B6E8A6F8970ABEC
:100160006EAA6FA970120003FFEF6017AB6E0570E7
:10017000E570AA6F7002056F14F9120003FF1201F7
:10018000E380DC22EFB40A07740D12018F740A3089
:100190009811A899B8130CC2983098FDA899C298E4
:1001A000B811F63099FDC299F59922758E024389EE
:1001B00001758CD8758A1FD28C308DFDC28DC28C92
:1001C00022438901758CFF758AFAD28C308DFDC26D
:1001D0008DC28C22758E08758920758B96758D96CB
:1001E000D28E228F718571993099FDC2992220A1FA
:1001F000FD30A1FD20A1FD22C2A11201ABD2A1229E
:1002000043E34043E10122026C00640075A900222F
:10021000226C65742773206765742073746172742F
:0E02200065640A0048756D203D2025640A00C3
:10080000E517240BF8E60517227808300702780B65
:10081000E475F00112005B0200032000EB7F2ED292
:10082000008018EF540F2490D43440D4FF30040BD0
:10083000EF24BFB41A0050032461FFE518600215CD
:1008400018051BE51B7002051A30070D7808E475C2
:10085000F00112005BEF0200490201847403D20729
:100860008003E4C207F5178B088A09890AE4F518A2
:10087000F51AF51BE51860077F2012083B80F57517
:1008800019FFC201C200C202C203C205C206C208E9
:10089000120809FF700D3007057F0012084CAF1BCE
:1008A000AE1A22B4255FC2D5C204120809FF24D0B3
:1008B000B40A00501A75F00A781830D50508B6FF4A
:1008C0000106C6A426F620D5047002D20380D924DE
:1008D000CFB41A00EF5004C2E5D204020A4CD20190
:1008E00080C6D20080C0D20280BCD2D580BAD205E8
:1008F00080B47F2012083B2002077401B518004025
:10090000F1120800FF12083B020874D208D20680D8
:1009100095120800FB120800FA120800F94A4B7001
:1009200006791D7A0B7BFF20022EE518602A7E00D7
:100930008E8275830012001C60060EEE651970F041
:10094000C2D5EBC0E0EAC0E0E9C0E0EE120A93D005
:10095000E0F9D0E0FAD0E0FB120003FF60AAEBC0A0
:10096000E0EAC0E0E9C0E012083BD0E02401F9D0A1
:10097000E03400FAD0E0FBE5190460DCD519D98039
:10098000877BFF7A0A798FD202809C791080027966
:1009900008C206C2088008D2D5790A8004790AC242
:1009A000D5E519047002F519E4FAFDFEFF120800FE
:1009B000FC7B08200113120800FD7B1030000A1296
:1009C0000800FE120800FF7B20EC3382D592D55040
:1009D00013C3E43000069FFFE49EFEE42001039D64
:1009E000FDE49CFCE4CBF8C201EC700CCFCECDCC86
:1009F000E824F8F870F38017C3EF33FFEE33FEED11
:100A000033FDEC33FCEB33FB994002FB0FD8E9EBF1
:100A1000300105F8D0E0C448B201C0E00AEC4D4E08
:100A20004F78207B0070C2EAB5190040BCC0E012CC
:100A30000A95D0F0D0E0200104C4C0E0C4B201C0E7
:100A4000F0120824D0F0D5F0EB02087412006B0904
:100A50001153098B5808E24C08DE42098F4F099761
:100A60004409974908F743099D550981460981457D
:100A70000981470B3D5008E62D08EA2E090D2B0889
:100A8000EE23090B200B262A08A648000009053F83
:100A90003F3F00790AA2D5200314300509B910029E
:100AA0000404B9080104A2D5200602500104200262
:100AB000689202B518005034C0E07F203003197FDF
:100AC00030A20272067205500F120AECC202C20670
:100AD000C205C2087F30800F300503E9C0E012086C
:100AE0003B300503D0E0F9D0E0B518CC3005177FD6
:100AF00030B9100C12083B7F583004077F78800310
:100B0000B9080312083B3002057F2D02083B7F2005
:100B10002008F87F2B2006F322920280CF286E75E2
:100B20006C6C2900D2011208003001F8C20178185B
:100B300030D50108F60208A62D5043495812080086
:100B40002403B405004001E4900B389312082C7480
:100B50003A12082CD20375180402098B120210787D
:100B60007FE4F6D8FD758172020BA6020091E49332
:100B7000A3F8E493A34003F68001F208DFF4802990
:100B8000E493A3F85407240CC8C333C4540F44207F
:100B9000C8834004F456800146F6DFE4800B01026E
:100BA000040810204080900207E47E019360BCA3FB
:100BB000FF543F30E509541FFEE493A360010ECFBC
:100BC00054C025E060A840B8E493A3FAE493A3F8E6
:100BD000E493A3C8C582C8CAC583CAF0A3C8C582A6
:0B0BE000C8CAC583CADFE9DEE780BE9B
:00000001FF
