:020000040000FA
:10000000020800C2D5EC30E709B2D5E4C39DFDE497
:100010009CFCEE30E715B2D5E4C39FFFE49EFE12D0
:100020000039C3E49DFDE49CFC800312003930D507
:1000300007C3E49FFFE49EFE22BC000BBE0029EF35
:100040008DF084FFADF022E4CCF875F008EF2FFFBF
:10005000EE33FEEC33FCEE9DEC984005FCEE9DFE8D
:100060000FD5F0E9E4CEFD22EDF8F5F0EE8420D2D4
:100070001CFEADF075F008EF2FFFED33FD40079843
:100080005006D5F0F222C398FD0FD5F0EA221200F7
:10009000C7759032A2949201A201300001B3500BB7
:1000A0002001080509E50970020508A2019200AEC9
:1000B00008AF097C007D02120003ED4C7004C2936E
:1000C00080D2D29380CE2285A70A1200E01200E7E8
:1000D0001200EB850AA722C181C18002080001003D
:1000E00075A70075A4012275A5182275E340222288
:100800001200EF787FE4F6D8FD75812002084A02D5
:10081000008EE493A3F8E493A34003F68001F2086A
:10082000DFF48029E493A3F85407240CC8C333C42D
:10083000540F4420C8834004F456800146F6DFE498
:10084000800B01020408102040809000D7E47E0154
:100850009360BCA3FF543F30E509541FFEE493A30B
:1008600060010ECF54C025E060A840B8E493A3FA1D
:10087000E493A3F8E493A3C8C582C8CAC583CAF0A9
:0F088000A3C8C582C8CAC583CADFE9DEE780BE48
:00000001FF
