:020000040000FA
:10000000020800758E02758901758C06758AC5D245
:100010008C308DFDC28CC28D2243E34043A5081273
:10002000002AB29312000380F92275A93022010937
:03003000000022AB
:10080000120032787FE4F6D8FD75810902084A02A9
:100810000019E493A3F8E493A34003F68001F208DF
:10082000DFF48029E493A3F85407240CC8C333C42D
:10083000540F4420C8834004F456800146F6DFE498
:10084000800B010204081020408090002EE47E01FD
:100850009360BCA3FF543F30E509541FFEE493A30B
:1008600060010ECF54C025E060A840B8E493A3FA1D
:10087000E493A3F8E493A3C8C582C8CAC583CAF0A9
:0F088000A3C8C582C8CAC583CADFE9DEE780BE48
:00000001FF
