:020000040000FA
:1000000002088F85A70C1208001200361200271272
:100010000043850CA722EB9FF5F0EA9E42F0E99D94
:1000200042F0E89C45F02275A970E5A95480FF7E56
:1000300000EF4E60F52275E34075E10422120003E3
:0800400080FE2243C180222250
:1008000075A7007597A5750B00750A007509007529
:1008100008007F197E007D007C00AB0BAA0AA909A5
:10082000A808C3120016502300AF0BAE0AAD09ACE6
:10083000087B017A0079007800EF2BF50BEE3AF592
:100840000AED39F509EC38F50880C7A2AF9200C26D
:0C085000AF7597DE7597ADA20092AF2245
:0F088F00120047787FE4F6D8FD75812002003D06
:00000001FF
