:020000040000FA
:1000000002080043E34043E10143A42043A410431A
:10001000A5081200BD1200991200A88F08E508B4C7
:100020004848B293750D00750C00750B00750A00F9
:100030007F807E967D987C00AB0DAA0CA90BA80A48
:10004000D312008850D2AF0DAE0CAD0BAC0A7B01C1
:100050007A0079007800EF2BF50DEE3AF50CED39CA
:10006000F50BEC38F50A80C880AED29380AA22BB8B
:10007000010689828A83E0225002E722BBFE02E366
:100080002289828A83E49322EB9FF5F0EA9E42F074
:10009000E99D42F0E89C45F022758E08758920752F
:1000A0008B96758D96D28E224398103098FD859947
:1000B00009C298AF0922040A000000000075A900D7
:0200C0002222FA
:100800001200C1787FE4F6D8FD75811202084A0211
:100810000003E493A3F8E493A34003F68001F208F5
:10082000DFF48029E493A3F85407240CC8C333C42D
:10083000540F4420C8834004F456800146F6DFE498
:10084000800B01020408102040809000B6E47E0175
:100850009360BCA3FF543F30E509541FFEE493A30B
:1008600060010ECF54C025E060A840B8E493A3FA1D
:10087000E493A3F8E493A3C8C582C8CAC583CAF0A9
:0F088000A3C8C582C8CAC583CADFE9DEE780BE48
:00000001FF
