:020000040000FA
:100000000208A0020006C0E0C0F0C083C082C0D0D9
:1000100075D000C000C001C002C003C004C005C04C
:1000200006C007B291750B00750A007509007508C6
:10003000007F0A7E007D007C00AB0BAA0AA909A8FC
:1000400008D31200865022AF0BAE0AAD09AC087B74
:10005000017A0079007800EF2BF50BEE3AF50AED06
:1000600039F509EC38F50880C8D289D007D006D018
:1000700005D004D003D002D001D000D0D0D082D09F
:1000800083D0F0D0E032EB9FF5F0EA9E42F0E99D9C
:1000900042F0E89C45F0227597DE7597AD22040882
:0500A00000000000005B
:1008000043E340D2AFD2A875E40043A50243A50458
:10081000C292750B00750A007509007508007FE823
:100820007E037D007C00AB0BAA0AA909A808D3129D
:1008300000865022AF0BAE0AAD09AC087B017A00EE
:1008400079007800EF2BF50BEE3AF50AED39F50952
:10085000EC38F50880C8D292750B00750A0075094E
:10086000007508007FE87E037D007C00AB0BAA0AC0
:10087000A909A808D31200865096AF0BAE0AAD099D
:10088000AC087B017A0079007800EF2BF50BEE3A8B
:10089000F50AED39F509EC38F50880C80208102290
:1008A000120097787FE4F6D8FD75810C0208EA0201
:1008B0000800E493A3F8E493A34003F68001F20850
:1008C000DFF48029E493A3F85407240CC8C333C48D
:1008D000540F4420C8834004F456800146F6DFE4F8
:1008E000800B010204081020408090009EE47E01ED
:1008F0009360BCA3FF543F30E509541FFEE493A36B
:1009000060010ECF54C025E060A840B8E493A3FA7C
:10091000E493A3F8E493A3C8C582C8CAC583CAF008
:0F092000A3C8C582C8CAC583CADFE9DEE780BEA7
:00000001FF
