:020000040000FA
:1000000002080002009D8F0B8E0A8D098C08750F67
:1000100000750E00750D00750C00438901758CFE8E
:10002000758A01D28C308D28AF0FAE0EAD0DAC0CA1
:100030007B017A0079007800EF2BF50FEE3AF50E90
:10004000ED39F50DEC38F50CC28D758CFE758A0115
:10005000AF0BAE0AAD09AC08AB0FAA0EA90DA80CE8
:10006000C31200C540BF800280BBC28D221200D6E1
:1000700043E340D2AFD2A875E40043A50843A510DE
:10008000C2947FE87E037D007C00120006D2947F3C
:10009000E87E037D007C0012000680E422C0E0C000
:1000A000D0B293751000751100D3E511940AE510D4
:1000B0009400500A0511E5117002051080EBC28909
:1000C000D0D0D0E032EB9FF5F0EA9E42F0E99D42BD
:1000D000F0E89C45F02285A7128512A7227597DECD
:0900E0007597AD2202100000002A
:100800001200DD787FE4F6D8FD75811202084A02F5
:10081000006DE493A3F8E493A34003F68001F2088B
:10082000DFF48029E493A3F85407240CC8C333C42D
:10083000540F4420C8834004F456800146F6DFE498
:10084000800B01020408102040809000E4E47E0147
:100850009360BCA3FF543F30E509541FFEE493A30B
:1008600060010ECF54C025E060A840B8E493A3FA1D
:10087000E493A3F8E493A3C8C582C8CAC583CAF0A9
:0F088000A3C8C582C8CAC583CADFE9DEE780BE48
:00000001FF
