:020000040000FA
:1000000002080043DA0243DA4043DA8043DB42432A
:10001000F78275FB6475FCFF75E9FF75EA0275D818
:10002000402275A95012003712000343D90043A49F
:100030000143A40280FE2243E34043E20143E20283
:1000400043A50822010A0002080000007597DE752A
:0300500097AD2247
:1008000012004C787FE4F6D8FD75810B02084A028D
:100810000022E493A3F8E493A34003F68001F208D6
:10082000DFF48029E493A3F85407240CC8C333C42D
:10083000540F4420C8834004F456800146F6DFE498
:10084000800B0102040810204080900044E47E01E7
:100850009360BCA3FF543F30E509541FFEE493A30B
:1008600060010ECF54C025E060A840B8E493A3FA1D
:10087000E493A3F8E493A3C8C582C8CAC583CAF0A9
:0F088000A3C8C582C8CAC583CADFE9DEE780BE48
:00000001FF
