:020000040000FA
:1000000002080075A95043D90012001E120037756E
:1000100009648509FCE5092432F5EA80F22243E30C
:100020004075D4CF75D50743E10143E20243A410E4
:1000300043A50843A5102243DA0243DB0275FC0006
:1000400075EA0075D840227597DE7597AD220109D3
:020050000000AE
:10080000120047787FE4F6D8FD75810902084A0294
:100810000003E493A3F8E493A34003F68001F208F5
:10082000DFF48029E493A3F85407240CC8C333C42D
:10083000540F4420C8834004F456800146F6DFE498
:10084000800B010204081020408090004EE47E01DD
:100850009360BCA3FF543F30E509541FFEE493A30B
:1008600060010ECF54C025E060A840B8E493A3FA1D
:10087000E493A3F8E493A3C8C582C8CAC583CAF0A9
:0F088000A3C8C582C8CAC583CADFE9DEE780BE48
:00000001FF
