:020000040000FA
:0A0000000208007597DE7597AD2227
:10000B0002009E8B088A09890AAB08AA09A90A1261
:10001B00005DFFEF6017AB08050AE50AAA0970023D
:10002B00050914F912005DFF12009380DC22120007
:10003B00AE1200A712007612008775A88243A5089E
:10004B0043A52043A4107BFF7A0079B612000E80E3
:10005B00F522BB010689828A83E0225002E722BB8C
:10006B00FE02E32289828A83E49322758E027589CC
:10007B0001758C06758AC5D2A9D28C22758E08752E
:10008B008920758D96D28E228F0C850C993099FD17
:10009B00C29922758C06758AC5B2933243E34043ED
:1000AB00E1012275A90022010D000068656C6C6FDF
:0800BB0020776F726C640A00EB
:10080000120003787FE4F6D8FD75810D02084A02D4
:100810000039E493A3F8E493A34003F68001F208BF
:10082000DFF48029E493A3F85407240CC8C333C42D
:10083000540F4420C8834004F456800146F6DFE498
:10084000800B01020408102040809000B2E47E0179
:100850009360BCA3FF543F30E509541FFEE493A30B
:1008600060010ECF54C025E060A840B8E493A3FA1D
:10087000E493A3F8E493A3C8C582C8CAC583CAF0A9
:0F088000A3C8C582C8CAC583CADFE9DEE780BE48
:00000001FF
