:020000040000FA
:1000000002098675A900438E0843892012008512D3
:1000100000967BFF7A0079A9C003C002C0017B0073
:100020007A007908A801AC02AD03D001D002D00358
:100030007E007F0D1208D07B007A00790812004CF8
:100040007BFF7A00799C12004C80C7228B158A16A0
:100050008917AB15AA16A9171208F6FFEF601AAB9D
:1000600015AA16A9171208F6FF12007A74012517AF
:10007000F517E43516F51680D9228F1985199930B0
:1000800099FDC2992243E34043E10175A4302275F2
:1000900097DE7597AD22758D96D28E226920616D9F
:1000A000207468656172610A0068656C6C6F207706
:0600B0006F726C64090090
:10080000E709F608DFFA8046E709F208DFFA803EDA
:1008100088828C83E709F0A3DFFA8032E309F608C7
:10082000DFFA8078E309F208DFFA807088828C832F
:10083000E309F0A3DFFA806489828A83E0A3F608E3
:10084000DFFA805889828A83E0A3F208DFFA804CBD
:1008500080D280FA80C680D4806980F28033801094
:1008600080A680EA809A80A880DA80E280CA8033FD
:1008700089828A83ECFAE493A3C8C582C8CCC58375
:10088000CCF0A3C8C582C8CCC583CCDFE9DEE78045
:100890000D89828A83E493A3F608DFF9ECFAA9F0C4
:1008A000EDFB2289828A83ECFAE0A3C8C582C8CC1A
:1008B000C583CCF0A3C8C582C8CCC583CCDFEADE33
:1008C000E880DB89828A83E493A3F208DFF980CC95
:1008D00088F0EF60010E4E60C388F0ED2402B4048E
:1008E0000050B9F582EB2402B4040050AF23234535
:1008F000822390085073BB010689828A83E02250CC
:0F09000002E722BBFE02E32289828A83E493226C
:0F09860012008F787FE4F6D8FD75811902000307
:00000001FF
