:020000040000FA
:10000000020EFCBB010689828A83E0225002E722AD
:10001000BBFE02E32289828A83E49322EF8DF0A45F
:10002000A8F0CF8CF0A428CE8DF0A42EFE22BC0028
:100030000BBE0029EF8DF084FFADF022E4CCF87503
:10004000F008EF2FFFEE33FEEC33FCEE9DEC984012
:1000500005FCEE9DFE0FD5F0E9E4CEFD22EDF8F5AE
:10006000F0EE8420D21CFEADF075F008EF2FFFED0E
:1000700033FD4007985006D5F0F222C398FD0FD506
:10008000F0EA22BB010A89828A83F0E5F0A3F0221C
:100090005006F709A7F01922BBFE06F3E5F009F3B5
:1000A0001922EB9FF5F0EA9E42F0E99D42F0E89CB0
:1000B00045F022BB010CE58229F582E5833AF58300
:1000C000E0225006E92582F8E622BBFE06E92582F9
:1000D000F8E222E58229F582E5833AF583E493226A
:1000E000BB010689828A83F0225002F722BBFE01FF
:1000F000F32275F008758200EF2FFFEE33FECD334B
:10010000CDCC33CCC58233C5829BED9AEC99E58288
:1001100098400CF582EE9BFEED9AFDEC99FC0FD514
:10012000F0D6E4CEFBE4CDFAE4CCF9A88222B80004
:10013000C1B90059BA002DEC8BF084CFCECDFCE5CF
:10014000F0CBF97818EF2FFFEE33FEED33FDEC33F3
:10015000FCEB33FB10D703994004EB99FB0FD8E578
:10016000E4F9FA227818EF2FFFEE33FEED33FDECC1
:1001700033FCC933C910D7059BE99A4007EC9BFCB7
:10018000E99AF90FD8E0E4C9FAE4CCFB2275F01043
:10019000EF2FFFEE33FEED33FDCC33CCC833C81068
:1001A000D7079BEC9AE899400AED9BFDEC9AFCE896
:1001B00099F80FD5F0DAE4CDFBE4CCFAE4C8F922E3
:1001C000FAE6FB0808E6F925F0F618E6CA3AF62240
:1001D000D083D082F8E4937012740193700DA3A3BE
:1001E00093F8740193F5828883E4737402936860D2
:1001F000EFA3A3A380DF8B608A61896275650075B8
:100200006600438901758C00758A00C281D28175B0
:100210006500756600C3E566940CE5659400500AB8
:100220000566E5667002056580EBC281208004D218
:100230008C80F92080FDC28C308D05C28D7F01221B
:10024000AF8C7E00EF7F00FEAD8A7C00EE4CF56344
:10025000EF4DF564AE63AF64AB07AA06E4F9F8C3EB
:10026000E49BFBE49AFA740199F9E498F87FA07E84
:10027000017D007C0012030D8E678F68AC67AD684E
:100280007E007F0112002E8E698F6AAE69AF6A7C94
:10029000987D1012001CAB60AA61A962EE8FF0126B
:1002A00000837F002275A900758E02758E0843E3D6
:1002B0004043E10143A4101203A343A50843A40251
:1002C0007B007A00795E1201F67E00EF4E70327B81
:1002D000007A007922C003C002C0017BFF7A037953
:1002E000BB8B0B8A0C890D855E0E855F0FD001D00C
:1002F00002D00312085C7B007A007922120351803D
:10030000BF7BFF7A0379CF12035180B422C2D5E8B4
:1003100030E70FB2D5E4C39BFBE49AFAE499F9E421
:1003200098F8EC30E717B2D512034312012EE4C35C
:100330009BFBE49AFAE499F9E498F8800312012E01
:1003400030D50DE4C39FFFE49EFEE49DFDE49CFCDC
:10035000228B738A748975AB73AA74A97512000312
:10036000FFEF6017AB730575E575AA74700205742D
:1003700014F9120003FF1203AF80DC22EFB40A0766
:10038000740D120387740A309811A899B8130CC21F
:10039000983098FDA899C298B811F63099FDC29985
:1003A000F59922438920758B96758D96D28E228F72
:1003B000778577993099FDC2992222746865206407
:1003C000697374616E63652069732025640A006F28
:0C03D0007574206F662072616E67650016
:10080000E517240BF8E60517227808300702780B65
:10081000E475F0011201C00200032000EB7F2ED22C
:10082000008018EF540F2490D43440D4FF30040BD0
:10083000EF24BFB41A0050032461FFE518600215CD
:1008400018051BE51B7002051A30070D7808E475C2
:10085000F0011201C0EF0200E002037C7403D20732
:100860008003E4C207F5178B088A09890AE4F518A2
:10087000F51AF51BE51860077F2012083B80F57517
:1008800019FFC201C200C202C203C205C206C208E9
:10089000120809FF700D3007057F0012084CAF1BCE
:1008A000AE1A22B4255FC2D5C204120809FF24D0B3
:1008B000B40A00501A75F00A781830D50508B6FF4A
:1008C0000106C6A426F620D5047002D20380D924DE
:1008D000CFB41A00EF5004C2E5D204020A4CD20190
:1008E00080C6D20080C0D20280BCD2D580BAD205E8
:1008F00080B47F2012083B2002077401B518004025
:10090000F1120800FF12083B020874D208D20680D8
:1009100095120800FB120800FA120800F94A4B7001
:1009200006791D7A0B7BFF20022EE518602A7E00D7
:100930008E827583001200B360060EEE651970F0AA
:10094000C2D5EBC0E0EAC0E0E9C0E0EE120A93D005
:10095000E0F9D0E0FAD0E0FB120003FF60AAEBC0A0
:10096000E0EAC0E0E9C0E012083BD0E02401F9D0A1
:10097000E03400FAD0E0FBE5190460DCD519D98039
:10098000877BFF7A0A798FD202809C791080027966
:1009900008C206C2088008D2D5790A8004790AC242
:1009A000D5E519047002F519E4FAFDFEFF120800FE
:1009B000FC7B08200113120800FD7B1030000A1296
:1009C0000800FE120800FF7B20EC3382D592D55040
:1009D00013C3E43000069FFFE49EFEE42001039D64
:1009E000FDE49CFCE4CBF8C201EC700CCFCECDCC86
:1009F000E824F8F870F38017C3EF33FFEE33FEED11
:100A000033FDEC33FCEB33FB994002FB0FD8E9EBF1
:100A1000300105F8D0E0C448B201C0E00AEC4D4E08
:100A20004F78207B0070C2EAB5190040BCC0E012CC
:100A30000A95D0F0D0E0200104C4C0E0C4B201C0E7
:100A4000F0120824D0F0D5F0EB0208741201D0099E
:100A50001153098B5808E24C08DE42098F4F099761
:100A60004409974908F743099D550981460981457D
:100A70000981470B3D5008E62D08EA2E090D2B0889
:100A8000EE23090B200B262A08A648000009053F83
:100A90003F3F00790AA2D5200314300509B910029E
:100AA0000404B9080104A2D5200602500104200262
:100AB000689202B518005034C0E07F203003197FDF
:100AC00030A20272067205500F120AECC202C20670
:100AD000C205C2087F30800F300503E9C0E012086C
:100AE0003B300503D0E0F9D0E0B518CC3005177FD6
:100AF00030B9100C12083B7F583004077F78800310
:100B0000B9080312083B3002057F2D02083B7F2005
:100B10002008F87F2B2006F322920280CF286E75E2
:100B20006C6C2900D2011208003001F8C20178185B
:100B300030D50108F60208A62D5043495812080086
:100B40002403B405004001E4900B389312082C7480
:0C0B50003A12082CD20375180402098B1D
:0F0EFC001203BA787FE4F6D8FD7581770202A55C
:00000001FF
