:020000040000FA
:1000000002091375A90043E34012009575A5087B0A
:10001000FF7A0079B61200407FE87E037D007C0005
:10002000120800C2937FA07E0F7D007C00120800A2
:10003000D2937FA07E0F7D007C0012080080D0222A
:100040008B108A118912AB10AA11A91212006BFF32
:10005000EF6017AB100512E512AA1170020511141A
:10006000F912006BFF1200AA80DC22BB0106898214
:100070008A83E0225002E722BBFE02E32289828AC1
:1000800083E49322EB9FF5F0EA9E42F0E99D42F073
:10009000E89C45F022758E0843E10143A410758960
:1000A00020758B96758D96D28E228F14851499307B
:1000B00099FDC299222268656C6C6F20776F726C13
:0300C000640A00CF
:100800008F0B8E0A8D098C08750F00750E00750D03
:1008100000750C00758E02438901758CFE758A0186
:10082000D28C308D28AF0FAE0EAD0DAC0C7B017AA3
:100830000079007800EF2BF50FEE3AF50EED39F563
:100840000DEC38F50CC28D758CFE758A01AF0BAEC0
:100850000AAD09AC08AB0FAA0EA90DA80CC3120073
:0C0860008440BF800280BBC28DC28C228D
:0F0913001200B5787FE4F6D8FD75811402000359
:00000001FF
