:020000040000FA
:10000000020DCABB010689828A83E0225002E722E0
:10001000BBFE02E32289828A83E49322EF8DF0A45F
:10002000A8F0CF8CF0A428CE8DF0A42EFE22BB0128
:100030000A89828A83F0E5F0A3F0225006F709A727
:10004000F01922BBFE06F3E5F009F31922EB9FF548
:10005000F0EA9E42F0E99D42F0E89C45F022BB01A7
:100060000CE58229F582E5833AF583E0225006E922
:100070002582F8E622BBFE06E92582F8E222E58227
:1000800029F582E5833AF583E49322BB0106898250
:100090008A83F0225002F722BBFE01F322FAE6FB2C
:1000A0000808E6F925F0F618E6CA3AF622D083D019
:1000B00082F8E4937012740193700DA3A393F87403
:1000C0000193F5828883E4737402936860EFA3A3BD
:1000D000A380DF75A900438E0A43E34043E1014357
:1000E000A43012027C43A50843A40243A401C29396
:1000F0007B007A0079641201487E00EF4E70327BFB
:10010000007A007928C003C002C0017BFF7A02791F
:100110008C8B0B8A0C890D85640E85650FD001D000
:1001200002D00312085C7B007A00792812021F803B
:10013000097BFF7A0279A012021F7FE87E037D000F
:100140007C001201B880A9228B6F8A708971757446
:1001500000438901758C00758A00C281D281757453
:1001600000AF747E00C3EF940CEE64809480500462
:10017000057480EDC281208004D28C80F92080FD3E
:10018000C28C308D05C28D7F0122AF8C7E00EF7F47
:1001900000FEAD8A7C00EE4CF572EF4DF573AE7249
:1001A000AF737C0C7DF312001CAB6FAA70A971EECB
:1001B0008FF012002E7F00228F6A8E698D688C6707
:1001C000756E00756D00756C00756B004389017567
:1001D0008CFE758A01D28C308D28AF6EAE6DAD6C01
:1001E000AC6B7B017A0079007800EF2BF56EEE3A6C
:1001F000F56DED39F56CEC38F56BC28D758CFE75CF
:100200008A01AF6AAE69AD68AC67AB6EAA6DA96CC6
:10021000A86BC312004D40BF800280BBC28D228BF1
:10022000758A768977AB75AA76A977120003FFEFF6
:100230006017AB750577E577AA767002057614F935
:10024000120003FF12027180DC22EFB40A07740D62
:10025000120255740A309811A899B8130CC298303C
:1002600098FDA899C298B811F63099FDC299F599F0
:10027000228F798579993099FDC299224389207519
:100280008D96D28E227597DE7597AD2274686520A3
:1002900064697374616E63652069732025640A0064
:0D02A0006F7574206F662072616E676500D7
:10080000E517240BF8E60517227808300702780B65
:10081000E475F00112009D0200032000EB7F2ED250
:10082000008018EF540F2490D43440D4FF30040BD0
:10083000EF24BFB41A0050032461FFE518600215CD
:1008400018051BE51B7002051A30070D7808E475C2
:10085000F00112009DEF02008B02024A7403D207DE
:100860008003E4C207F5178B088A09890AE4F518A2
:10087000F51AF51BE51860077F2012083B80F57517
:1008800019FFC201C200C202C203C205C206C208E9
:10089000120809FF700D3007057F0012084CAF1BCE
:1008A000AE1A22B4255FC2D5C204120809FF24D0B3
:1008B000B40A00501A75F00A781830D50508B6FF4A
:1008C0000106C6A426F620D5047002D20380D924DE
:1008D000CFB41A00EF5004C2E5D204020A4CD20190
:1008E00080C6D20080C0D20280BCD2D580BAD205E8
:1008F00080B47F2012083B2002077401B518004025
:10090000F1120800FF12083B020874D208D20680D8
:1009100095120800FB120800FA120800F94A4B7001
:1009200006791D7A0B7BFF20022EE518602A7E00D7
:100930008E8275830012005E60060EEE651970F0FF
:10094000C2D5EBC0E0EAC0E0E9C0E0EE120A93D005
:10095000E0F9D0E0FAD0E0FB120003FF60AAEBC0A0
:10096000E0EAC0E0E9C0E012083BD0E02401F9D0A1
:10097000E03400FAD0E0FBE5190460DCD519D98039
:10098000877BFF7A0A798FD202809C791080027966
:1009900008C206C2088008D2D5790A8004790AC242
:1009A000D5E519047002F519E4FAFDFEFF120800FE
:1009B000FC7B08200113120800FD7B1030000A1296
:1009C0000800FE120800FF7B20EC3382D592D55040
:1009D00013C3E43000069FFFE49EFEE42001039D64
:1009E000FDE49CFCE4CBF8C201EC700CCFCECDCC86
:1009F000E824F8F870F38017C3EF33FFEE33FEED11
:100A000033FDEC33FCEB33FB994002FB0FD8E9EBF1
:100A1000300105F8D0E0C448B201C0E00AEC4D4E08
:100A20004F78207B0070C2EAB5190040BCC0E012CC
:100A30000A95D0F0D0E0200104C4C0E0C4B201C0E7
:100A4000F0120824D0F0D5F0EB0208741200AD09C2
:100A50001153098B5808E24C08DE42098F4F099761
:100A60004409974908F743099D550981460981457D
:100A70000981470B3D5008E62D08EA2E090D2B0889
:100A8000EE23090B200B262A08A648000009053F83
:100A90003F3F00790AA2D5200314300509B910029E
:100AA0000404B9080104A2D5200602500104200262
:100AB000689202B518005034C0E07F203003197FDF
:100AC00030A20272067205500F120AECC202C20670
:100AD000C205C2087F30800F300503E9C0E012086C
:100AE0003B300503D0E0F9D0E0B518CC3005177FD6
:100AF00030B9100C12083B7F583004077F78800310
:100B0000B9080312083B3002057F2D02083B7F2005
:100B10002008F87F2B2006F322920280CF286E75E2
:100B20006C6C2900D2011208003001F8C20178185B
:100B300030D50108F60208A62D5043495812080086
:100B40002403B405004001E4900B389312082C7480
:0C0B50003A12082CD20375180402098B1D
:0F0DCA00120285787FE4F6D8FD75817A0200D396
:00000001FF
