:020000040000FA
:10000000020D6A7597DE7597AD2222020247120231
:10001000E31202CD1202FF1202B412000AD2AFAFF5
:100020001DAE1CAD1BAC1A8F118E108D0F8C0EAF38
:100030001DAE1CAD1BAC1A8F158E148D138C12AF18
:100040001DAE1CAD1BAC1A8F198E188D178C167B2C
:10005000FF7A03790912021CC3E51D9511FBE51C0B
:100060009510FAE51B950FF9E51A950EF8AE08AF55
:1000700009E4FCFDC31201964016AF1DAE1CAD1B7A
:10008000AC1A8F118E108D0F8C0E751FC8851FFC3A
:10009000C3E51D9515FBE51C9514FAE51B9513F9B1
:1000A000E51A9512F8AE0AAF0BE4FCFDC3120196F7
:1000B000404AAF1DAE1CAD1BAC1A8F158E148D13AC
:1000C0008C127B017A007900C003C002C0017BFF63
:1000D0007A03792C8B258A268927AF1DAE1CAD1B90
:1000E000AC1A8F2B8E2A8D298C28D001D002D003F8
:1000F00012085C7B017A00790012021CC3E51D9591
:1001000019FBE51C9518FAE51B9517F9E51A9516E4
:10011000F8AE0CAF0DE4FCFDC312019650030200D3
:1001200058AF1DAE1CAD1BAC1A8F198E188D178CD5
:1001300016A294920A200A3D30093A7B017A00798E
:1001400000C003C002C0017BFF7A03793D8B258A82
:10015000268927AF1DAE1CAD1BAC1A8F2B8E2A8DA6
:10016000298C28D001D002D00312085C7B017A00D0
:10017000790012021CA20A920902005822BB010651
:1001800089828A83E0225002E722BBFE02E32289B1
:10019000828A83E49322EB9FF5F0EA9E42F0E99D88
:1001A00042F0E89C45F022BB010CE58229F582E58E
:1001B000833AF583E0225006E92582F8E622BBFE69
:1001C00006E92582F8E222E58229F582E5833AF5FF
:1001D00083E49322BB010689828A83F0225002F7CE
:1001E00022BBFE01F322FAE6FB0808E6F925F0F649
:1001F00018E6CA3AF622D083D082F8E493701274DB
:100200000193700DA3A393F8740193F5828883E49E
:10021000737402936860EFA3A3A380DF8B368A37E1
:100220008938AB36AA37A93812017DFFEF6017ABCA
:10023000360538E538AA377002053714F912017D02
:10024000FF1202F480DC22C0E0C0D0E51D240AF5D4
:100250001DE51C3400F51CE51B3400F51BE51A34C4
:1002600000F51A758C10758ABEC28DD0D0D0E032E0
:10027000EFB40A07740D12027B740A309811A89922
:10028000B8130CC2983098FDA899C298B811F630EE
:1002900099FDC299F59922041A0000000002081382
:1002A00088020A03E8020C0032011F00011E0AC185
:1002B0008AC18900758E09758921758C10758ABE71
:1002C000758B96758D96D2A9D28CD28E2243E3403F
:1002D00075D4CF75D50743E10143E20143A4104330
:1002E000A5082275A900E5A95480FF7E00EF64806F
:1002F0004E70F3228F3A853A993099FDC299224384
:10030000DA0275FC0043D840222D2D2D2D2D2D20F5
:100310004170706C69636174696F6E20737461728F
:10032000746564202D2D2D2D2D2D0A0052756E74AF
:10033000696D653A20256C75206D730A00427574ED
:10034000746F6E20697320707265737365642061C9
:0A0350007420256C75206D730A00FF
:10080000E5312425F8E605312278223007027825E3
:10081000E475F0011201E602017D2000EB7F2ED28B
:10082000008018EF540F2490D43440D4FF30040BD0
:10083000EF24BFB41A0050032461FFE532600215B3
:10084000320535E5357002053430070D7822E47540
:10085000F0011201E6EF0201D40202707403D20724
:100860008003E4C207F5318B228A238924E4F53220
:10087000F534F535E53260077F2012083B80F575C9
:1008800033FFC201C200C202C203C205C206C208CF
:10089000120809FF700D3007057F0012084CAF35B4
:1008A000AE3422B4255FC2D5C204120809FF24D099
:1008B000B40A00501A75F00A783230D50508B6FF30
:1008C0000106C6A426F620D5047002D20380D924DE
:1008D000CFB41A00EF5004C2E5D204020A4CD20190
:1008E00080C6D20080C0D20280BCD2D580BAD205E8
:1008F00080B47F2012083B2002077401B53200400B
:10090000F1120800FF12083B020874D208D20680D8
:1009100095120800FB120800FA120800F94A4B7001
:1009200006791D7A0B7BFF20022EE532602A7E00BD
:100930008E827583001201A760060EEE653370F09B
:10094000C2D5EBC0E0EAC0E0E9C0E0EE120A93D005
:10095000E0F9D0E0FAD0E0FB12017DFF60AAEBC025
:10096000E0EAC0E0E9C0E012083BD0E02401F9D0A1
:10097000E03400FAD0E0FBE5330460DCD533D98005
:10098000877BFF7A0A798FD202809C791080027966
:1009900008C206C2088008D2D5790A8004790AC242
:1009A000D5E533047002F533E4FAFDFEFF120800CA
:1009B000FC7B08200113120800FD7B1030000A1296
:1009C0000800FE120800FF7B20EC3382D592D55040
:1009D00013C3E43000069FFFE49EFEE42001039D64
:1009E000FDE49CFCE4CBF8C201EC700CCFCECDCC86
:1009F000E824F8F870F38017C3EF33FFEE33FEED11
:100A000033FDEC33FCEB33FB994002FB0FD8E9EBF1
:100A1000300105F8D0E0C448B201C0E00AEC4D4E08
:100A20004F78207B0070C2EAB5330040BCC0E012B2
:100A30000A95D0F0D0E0200104C4C0E0C4B201C0E7
:100A4000F0120824D0F0D5F0EB0208741201F60978
:100A50001153098B5808E24C08DE42098F4F099761
:100A60004409974908F743099D550981460981457D
:100A70000981470B3D5008E62D08EA2E090D2B0889
:100A8000EE23090B200B262A08A648000009053F83
:100A90003F3F00790AA2D5200314300509B910029E
:100AA0000404B9080104A2D5200602500104200262
:100AB000689202B532005034C0E07F203003197FC5
:100AC00030A20272067205500F120AECC202C20670
:100AD000C205C2087F30800F300503E9C0E012086C
:100AE0003B300503D0E0F9D0E0B532CC3005177FBC
:100AF00030B9100C12083B7F583004077F78800310
:100B0000B9080312083B3002057F2D02083B7F2005
:100B10002008F87F2B2006F322920280CF286E75E2
:100B20006C6C2900D2011208003001F8C201783241
:100B300030D50108F60208A62D5043495812080086
:100B40002403B405004001E4900B389312082C7480
:0C0B50003A12082CD20375320402098B03
:100D6A00120003787FE4F6D8FD75813A020DB402C9
:100D7A00000EE493A3F8E493A34003F68001F2087B
:100D8A00DFF48029E493A3F85407240CC8C333C4BE
:100D9A00540F4420C8834004F456800146F6DFE429
:100DAA00800B0102040810204080900297E47E0123
:100DBA009360BCA3FF543F30E509541FFEE493A39C
:100DCA0060010ECF54C025E060A840B8E493A3FAAE
:100DDA00E493A3F8E493A3C8C582C8CAC583CAF03A
:0F0DEA00A3C8C582C8CAC583CADFE9DEE780BED9
:00000001FF
