:020000040000FA
:10000000020D877597DE7597AD22220202641203F6
:10001000001202EA12031C1202D112000AD2AFAF80
:100020001DAE1CAD1BAC1A8F118E108D0F8C0EAF38
:100030001DAE1CAD1BAC1A8F158E148D138C12AF18
:100040001DAE1CAD1BAC1A8F198E188D178C167B2C
:10005000FF7A037926120239C3E51D9511FBE51CD1
:100060009510FAE51B950FF9E51A950EF8AE08AF55
:1000700009E4FCFDC31201B34033AF1DAE1CAD1B40
:10008000AC1A8F118E108D0F8C0EAF1F7E00EF4EAD
:100090007005751E0A800DAF1F7E00EF64FA4E706A
:1000A00003751EF6E51E251FF51F851FFCC3E51D04
:1000B0009515FBE51C9514FAE51B9513F9E51A95C2
:1000C00012F8AE0AAF0BE4FCFDC31201B3404AAF15
:1000D0001DAE1CAD1BAC1A8F158E148D138C127BAC
:1000E000017A007900C003C002C0017BFF7A037966
:1000F000498B258A268927AF1DAE1CAD1BAC1A8FF4
:100100002B8E2A8D298C28D001D002D00312085CB6
:100110007B017A007900120239C3E51D9519FBE5D0
:100120001C9518FAE51B9517F9E51A9516F8AE0C0B
:10013000AF0DE4FCFDC31201B35003020058AF1D24
:10014000AE1CAD1BAC1A8F198E188D178C16A2948D
:10015000920A200A3D30093A7B017A007900C003F7
:10016000C002C0017BFF7A03795A8B258A26892732
:10017000AF1DAE1CAD1BAC1A8F2B8E2A8D298C287F
:10018000D001D002D00312085C7B017A0079001202
:100190000239A20A920902005822BB010689828A0A
:1001A00083E0225002E722BBFE02E32289828A8397
:1001B000E49322EB9FF5F0EA9E42F0E99D42F0E8DD
:1001C0009C45F022BB010CE58229F582E5833AF5D6
:1001D00083E0225006E92582F8E622BBFE06E925E7
:1001E00082F8E222E58229F582E5833AF583E493F9
:1001F00022BB010689828A83F0225002F722BBFECD
:1002000001F322FAE6FB0808E6F925F0F618E6CA3B
:100210003AF622D083D082F8E4937012740193707E
:100220000DA3A393F8740193F5828883E473740299
:10023000936860EFA3A3A380DF8B368A378938AB3E
:1002400036AA37A93812019AFFEF6017AB36053886
:10025000E538AA377002053714F912019AFF120324
:100260001180DC22C0E0C0D0E51D240AF51DE51C8C
:100270003400F51CE51B3400F51BE51A3400F51AB3
:10028000758C10758ABEC28DD0D0D0E032EFB40A22
:1002900007740D120298740A309811A899B8130CBB
:1002A000C2983098FDA899C298B811F63099FDC24D
:1002B00099F59922041A0000000002080064020A5D
:1002C00003E8020C0032011F00011E0AC18AC18925
:1002D00000758E09758921758C10758ABE758B968F
:1002E000758D96D2A9D28CD28E2243E34075D4CF9D
:1002F00075D50743E10143E20143A41043A5082259
:1003000075A900E5A95480FF7E00EF64804E70F36C
:10031000228F3A853A993099FDC2992243DA0275C3
:10032000FC0043D840222D2D2D2D2D2D2041707005
:100330006C69636174696F6E207374617274656453
:10034000202D2D2D2D2D2D0A0052756E74696D6591
:100350003A20256C75206D730A00427574746F6EB7
:100360002069732070726573736564206174202541
:070370006C75206D730A009B
:10080000E5312425F8E605312278223007027825E3
:10081000E475F00112020302019A2000EB7F2ED250
:10082000008018EF540F2490D43440D4FF30040BD0
:10083000EF24BFB41A0050032461FFE532600215B3
:10084000320535E5357002053430070D7822E47540
:10085000F001120203EF0201F102028D7403D207CC
:100860008003E4C207F5318B228A238924E4F53220
:10087000F534F535E53260077F2012083B80F575C9
:1008800033FFC201C200C202C203C205C206C208CF
:10089000120809FF700D3007057F0012084CAF35B4
:1008A000AE3422B4255FC2D5C204120809FF24D099
:1008B000B40A00501A75F00A783230D50508B6FF30
:1008C0000106C6A426F620D5047002D20380D924DE
:1008D000CFB41A00EF5004C2E5D204020A4CD20190
:1008E00080C6D20080C0D20280BCD2D580BAD205E8
:1008F00080B47F2012083B2002077401B53200400B
:10090000F1120800FF12083B020874D208D20680D8
:1009100095120800FB120800FA120800F94A4B7001
:1009200006791D7A0B7BFF20022EE532602A7E00BD
:100930008E827583001201C460060EEE653370F07E
:10094000C2D5EBC0E0EAC0E0E9C0E0EE120A93D005
:10095000E0F9D0E0FAD0E0FB12019AFF60AAEBC008
:10096000E0EAC0E0E9C0E012083BD0E02401F9D0A1
:10097000E03400FAD0E0FBE5330460DCD533D98005
:10098000877BFF7A0A798FD202809C791080027966
:1009900008C206C2088008D2D5790A8004790AC242
:1009A000D5E533047002F533E4FAFDFEFF120800CA
:1009B000FC7B08200113120800FD7B1030000A1296
:1009C0000800FE120800FF7B20EC3382D592D55040
:1009D00013C3E43000069FFFE49EFEE42001039D64
:1009E000FDE49CFCE4CBF8C201EC700CCFCECDCC86
:1009F000E824F8F870F38017C3EF33FFEE33FEED11
:100A000033FDEC33FCEB33FB994002FB0FD8E9EBF1
:100A1000300105F8D0E0C448B201C0E00AEC4D4E08
:100A20004F78207B0070C2EAB5330040BCC0E012B2
:100A30000A95D0F0D0E0200104C4C0E0C4B201C0E7
:100A4000F0120824D0F0D5F0EB020874120213095A
:100A50001153098B5808E24C08DE42098F4F099761
:100A60004409974908F743099D550981460981457D
:100A70000981470B3D5008E62D08EA2E090D2B0889
:100A8000EE23090B200B262A08A648000009053F83
:100A90003F3F00790AA2D5200314300509B910029E
:100AA0000404B9080104A2D5200602500104200262
:100AB000689202B532005034C0E07F203003197FC5
:100AC00030A20272067205500F120AECC202C20670
:100AD000C205C2087F30800F300503E9C0E012086C
:100AE0003B300503D0E0F9D0E0B532CC3005177FBC
:100AF00030B9100C12083B7F583004077F78800310
:100B0000B9080312083B3002057F2D02083B7F2005
:100B10002008F87F2B2006F322920280CF286E75E2
:100B20006C6C2900D2011208003001F8C201783241
:100B300030D50108F60208A62D5043495812080086
:100B40002403B405004001E4900B389312082C7480
:0C0B50003A12082CD20375320402098B03
:100D8700120003787FE4F6D8FD75813A020DD1028F
:100D9700000EE493A3F8E493A34003F68001F2085E
:100DA700DFF48029E493A3F85407240CC8C333C4A1
:100DB700540F4420C8834004F456800146F6DFE40C
:100DC700800B01020408102040809002B4E47E01E9
:100DD7009360BCA3FF543F30E509541FFEE493A37F
:100DE70060010ECF54C025E060A840B8E493A3FA91
:100DF700E493A3F8E493A3C8C582C8CAC583CAF01D
:0F0E0700A3C8C582C8CAC583CADFE9DEE780BEBB
:00000001FF
