:020000040000FA
:10000000020800020006C0E0C0F0C083C082C0D079
:1000100075D000C000C001C002C003C004C005C04C
:1000200006C007B293750F00750E00750D00750CB4
:10003000007F0A7E007D007C00AB0FAA0EA90DA8F0
:100040000CC312010E5022AF0FAE0EAD0DAC0C7BE7
:10005000017A0079007800EF2BF50FEE3AF50EEDFE
:1000600039F50DEC38F50C80C8C289D007D006D020
:1000700005D004D003D002D001D000D0D0D082D09F
:1000800083D0F0D0E03275A7007597A5750B007589
:100090000A007509007508007F197E007D007C004C
:1000A000AB0BAA0AA909A808C312010E502300AF7E
:1000B0000BAE0AAD09AC087B017A0079007800EF3D
:1000C0002BF50BEE3AF50AED39F509EC38F5088019
:1000D000C7A2AF9200C2AF7597DE7597ADA200922E
:1000E000AF2285A71012008612012612012D1201DF
:1000F0004312013B12013F8510A7221200E243E3A5
:1001000040D2AFD2A843F21043A50880FE22EB9F55
:10011000F5F0EA9E42F0E99D42F0E89C45F0227538
:1001200097DE7597AD2275A40175D4FE2275A518CA
:1001300075D50722040C000000000075E40022754C
:04014000A88122224E
:1008000012011F787FE4F6D8FD75812002084A02A4
:1008100000FBE493A3F8E493A34003F68001F208FD
:10082000DFF48029E493A3F85407240CC8C333C42D
:10083000540F4420C8834004F456800146F6DFE498
:10084000800B0102040810204080900134E47E01F6
:100850009360BCA3FF543F30E509541FFEE493A30B
:1008600060010ECF54C025E060A840B8E493A3FA1D
:10087000E493A3F8E493A3C8C582C8CAC583CAF0A9
:0F088000A3C8C582C8CAC583CADFE9DEE780BE48
:00000001FF
