:020000040000FA
:10000000020909E88FF0A4CC8BF0A42CFCE98EF057
:10001000A42CFC8AF0EDA42CFCEA8EF0A4CDA8F070
:100020008BF0A42DCC3825F0FDE98FF0A42CCD3534
:10003000F0FCEB8EF0A4FEA9F0EB8FF0A4CFC5F09E
:100040002ECD39FEE43CFCEAA42DCE35F0FDE43C97
:10005000FC22EB9FF5F0EA9E42F0E99D42F0E89C1D
:1000600045F0221200A475A90075A90043E340439E
:10007000A50843A500C2937F017E007D007C00128D
:100080000800D2937F017E007D007C001208008072
:10009000E42275A70075A900E5A95480FF7E00EF52
:0F00A0004E60F52285A7141200928514A7222224
:100800008F138E128D118C10AF13AE12AD11AC1070
:100810007B5F7AFB790478001200038F138E128DB0
:10082000118C10750B01750A00750900750800AF71
:1008300013AE12AD11AC10AB0BAA0AA909A808D3CC
:100840001200525022AF0BAE0AAD09AC087B017A00
:100850000079007800EF2BF50BEE3AF50AED39F54B
:0808600009EC38F50880C822FC
:0F0909001200AE787FE4F6D8FD7581140200630A
:00000001FF
